:020000040000FA
:020000000528D1
:040002000034003492
:020008001D28B1
:06000A00831603178801B4
:1000100089018316031387018801F03086000730B9
:10002000810083160313F0309500960088308B0012
:1000300083120313F03086001C28A000030EA100D9
:100040009920FF3086000610A401A3012F28031475
:10005000860D0430A307A40AA41D2F288928061A98
:1000600034280030A3078928861A39280130A307CD
:100070008928061B3E280230A3078928861B2728CB
:100080000330A3078928061A472807308928861ACB
:100090004B2808308928061B4F2809308928861BE1
:1000A00053280A3089280314860D061A592804306B
:1000B0008928861A5D2805308928061B61280630A4
:1000C0008928861B65280B3089280314860D061A9B
:1000D0006B2801308928861A6F2802308928061B70
:1000E000732803308928861B77280C30892803144D
:1000F000860D061A7D280D308928861A8128003041
:100100008928061B85280E308928861B89280F30F0
:10011000892823088700F03086000B10210E830009
:10012000200809002708A803A707A803031D94288F
:1001300008000230A7000230A6000230A500A50B7F
:0C0140009F28A60B9D28A70B9B280800F9
:02400E00F23B83
:02401000FF3F70
:00000001FF
