:020000040000FA
:020000000528D1
:040002000034003492
:06000A0083168601880147
:1000100087018312A801A901AA01AB01A601A301CE
:10002000860187018801FF30A4000830A300A500E5
:1000300027200330A2000830A300202015281F2805
:100040002208A303A207A303031D22280800FF30F0
:10005000A40024102408860023085F2088002508B7
:100060005F2087005220A30AA50A0314A40D0318D9
:100070002A28A301A50108002830840026100008C2
:1000800047208000261C08008001840A3E28A20028
:10009000A20A22080A3A031D50280030261408003C
:1000A000220808000130A2000230A100FF30A000A9
:1000B000A00B5828A10B5628A20B54280800820731
:1000C0003F343F3433343334333433343F343F34C8
:1000D00004340C3404340434043404343F343F34E2
:02400E00F23B83
:02401000FF3F70
:00000001FF
