:040000004CEF3DF094
:107A6200821E1200831E1200D388D38AD38C120086
:107A720026C0D7FF27C0D6FF1200016E01B002D088
:107A8200D59E01D0D58E1200000E946E000E956E1A
:107A9200826883681200276A266A256A246A236A32
:107AA200000EF86E00018DEF3DF0F2A408D0F294C2
:107AB20039EC3DF0010E3EEC3DF0010E1200000EDD
:107AC2001200000E096E000E0A6E000E0B6E000E02
:107AD2000C6E01A008D00550092606500A22075054
:107AE2000B2208500C22D890053606360736083687
:107AF200D8900432033202320132015002100310D4
:107B02000410D8A4E6D709C001F00AC002F00BC0E5
:107B120003F00CC004F0120035EC3DF00A0E1A6EB0
:107B2200000E1B6E000E1C6E000E1D6E010E1E6EF0
:107B3200FBEC3DF0010E3EEC3DF045EC3DF056EC29
:107B42003DF00009D8B404D02428246E2328236EE3
:107B5200640E2318D8A404D031EC3DF0000E236E3D
:107B6200320E2418D8A4EBD733EC3DF0000E246E6D
:107B7200E6D7000E156E000E166E000E176E000E82
:107B8200186E1150121013101410D8B42AD0010E0E
:107B9200196E06D0D8901136123613361436192AB9
:107BA20014AEF8D7D8901536163617361836115047
:107BB2000D5C12500E5813500F5814501058D8A084
:107BC20009D011500D5E12500E5A13500F5A145014
:107BD200105A1580D8901432133212321132192EE3
:107BE200E1D715C00DF016C00EF017C00FF018C087
:107BF20010F012001AC028F01BC029F01CC02AF095
:107C02001DC02BF01F682068000E226E020E216E2E
:107C1200E5D1285029102A102B10D8B40FD02B50A0
:107C22002A1029100BE1410E285CD8B007D0D5905C
:107C3200D592D594000E226E010EB1D02B502A108F
:107C4200291004E1410E285CD8A010D02B502A1034
:107C520029100CE1830E285CD8B008D0D550F80B5F
:107C62000109D56E000E226E020E99D02B502A10F9
:107C7200291004E1830E285CD8A011D02B502A10C1
:107C82000EE1060E285C010E2958D8B008D0D55056
:107C9200F80B0209D56E000E226E040E80D02B5016
:107CA2002A1006E1060E285C010E2958D8A011D030
:107CB2002B502A100EE10C0E285C020E2958D8B067
:107CC20008D0D550F80B0309D56E000E226E080EAF
:107CD20066D02B502A1006E10C0E285C020E2958A1
:107CE200D8A011D02B502A100EE1100E285C040EE1
:107CF2002958D8B008D0D550F80B0409D56E000E1B
:107D0200226E100E4CD02B502A1006E1100E285C69
:107D1200040E2958D8A011D02B502A100EE12A0E99
:107D2200285C080E2958D8B008D0D550F80B0509A0
:107D3200D56E000E226E200E32D02B502A1006E194
:107D42002A0E285C080E2958D8A011D02B502A10D0
:107D52000EE15E0E285C100E2958D8B008D0D5501E
:107D6200F80B0609D56E000E226E400E18D02B506D
:107D72002A1006E15E0E285C100E2958D8A010D0F9
:107D82002B502A100DE1BC0E285C200E2958D8B0C9
:107D920007D0D580D582D584000E226E800E216E4A
:107DA20028C001F029C002F02AC003F02BC004F061
:107DB200E80E056E030E066E000E076E000E086ECC
:107DC20062EC3DF0FE0E01240D6EFF0E02200E6EDF
:107DD200FF0E03200F6EFF0E0420106E21C011F063
:107DE20022C012F0136A146ABAEC3DF0ECD02850AB
:107DF20029102A102B10D8B410D02B502A100DE1C4
:107E0200E80E285CFD0E2958D8B007D0D590D5923F
:107E1200D594000E226E010EC1D02B502A1006E11D
:107E2200E80E285CFD0E2958D8A012D02B5010E184
:107E3200B80E285CFF0E2958010E2A58D8B008D077
:107E4200D550F80B0109D56E000E226E020EA6D097
:107E52002B5008E1B80E285CFF0E2958010E2A5853
:107E6200D8A012D02B5010E1700E285CFF0E2958BA
:107E7200030E2A58D8B008D0D550F80B0209D56E97
:107E8200000E226E040E8AD02B5008E1700E285C80
:107E9200FF0E2958030E2A58D8A012D02B5010E1F9
:107EA200E00E285CFE0E2958070E2A58D8B008D0DA
:107EB200D550F80B0309D56E000E226E080E6ED057
:107EC2002B5008E1E00E285CFE0E2958070E2A58B6
:107ED200D8A012D02B5010E1800E285CDE0E29585B
:107EE2000F0E2A58D8B008D0D550F80B0409D56E19
:107EF200000E226E100E52D02B5008E1800E285C2C
:107F0200DE0E29580F0E2A58D8A012D02B5010E19D
:107F1200100E285CE40E29581F0E2A58D8B008D03B
:107F2200D550F80B0509D56E000E226E200E36D004
:107F32002B5008E1100E285CE40E29581F0E2A5817
:107F4200D8A012D02B5010E1300E285CEF0E295829
:107F52003F0E2A58D8B008D0D550F80B0609D56E76
:107F6200000E226E400E1AD02B5008E1300E285C13
:107F7200EF0E29583F0E2A58D8A011D02B500FE1EE
:107F8200600E285CDE0E29587F0E2A58D8B007D022
:107F9200D580D582D584000E226E800E216EFE0E13
:107FA20028240D6EFF0E29200E6EFF0E2A200F6E62
:107FB200FF0E2B20106E21C011F022C012F0136AA6
:107FC200146ABAEC3DF00D1E0E1E0D4A0E2A1F5009
:107FD2000D241F6E20500E20206E07D01E50000A66
:107FE200D8B405D7010AD8B414D61FC027F0205040
:0E7FF200266ED59CD596D59A39EC3DF012003E
:020000040020DA
:08000000FFFFFFFFFFFFFFFF00
:020000040030CA
:0E00000000091F1EFF8385FF0FC00FE00F4099
:00000001FF
