:0400000097EF3FF047
:107F2E00000EF86E0001DDEF3FF083380F0B0F0BE4
:107F3E00016E01C08BFF01501200016EF00E8C1607
:107F4E00F00E8A1601500F0B8C1201380F0B8A128D
:107F5E001200016E0128D8A402D0F00E12000F0EEE
:107F6E000118D8A402D0000E1200AA0E1200036E41
:107F7E000350A4EC3FF0032AEA0E026EC30EE82E65
:107F8E00FED7022EFCD700F003501200000E836EB7
:107F9E00000E8C6E000E816E000E936EF00E956EBE
:107FAE009268000E946E000E826E1200D388D38AF1
:107FBE00D38CCDEC3FF014D00550BEEC3FF0056EE7
:107FCE000FD00550B0EC3FF0056E0550A4EC3FF01D
:107FDE00EA0E046EC30EE82EFED7042EFCD700F078
:107FEE009CEC3FF0000AD8B4E7D7010AD8B4E9D721
:027FFE00F7D7B3
:020000040020DA
:08000000FFFFFFFFFFFFFFFF00
:020000040030CA
:0E00000000091F1EFF8385FF0FC00FE00F4099
:00000001FF
