:04000000C4EF3FF01A
:0E7F18002D6E2DC0C9FFC7A0FED7C9501200A4
:107F27004553435249424120554E204D534D200D54
:107F370000000E946E000E956E000E936E8268839D
:107F4700681200C79EC79CC68AC698C690C692C6C6
:107F570094C696000E946E12002F50306E3050105B
:107F670009306E839030508CEC3FF02E508CEC3FF4
:107F7700F000D000D0819800D000D0818883801293
:107F87000000EE01F01B0EEE6AE806FDE1270EF693
:107F97006E7F0EF76E000EF86E00EE1CF010EE11FD
:107FA700F00900F5CFEEFFE550E150FAE10001DD01
:107FB700EF3FF0000E326E000E316ED388D38AD3B6
:107FC7008C83808188A5EC3FF09CEC3FF031C02E7C
:107FD700F032C02FF0B0EC3FF0314A322A310410B2
:107FE7000E3258D8A004D0000E326E000E316E4209
:0A7FF7000EE82EFED700D0EAD7FFF7
:020000040020DA
:08000000FFFFFFFFFFFFFFFF00
:020000040030CA
:0E00000000091F1EFF8385FF0FC00FE00F4099
:00000001FF
