:04000000C4EF3FF01A
:107F14002D6E2DC0C9FFC7A0FED7C9501200000E98
:0C7F2400956E000E936E82688368120058
:107F31004553435249424120554E204D534D200D4A
:107F410000C79EC79CC698C650F00B0109C66E00BB
:107F51000E946EC68A12002EC030F02F502E6E2F56
:107F61006A2E501009316E8390818831508AEC3F1E
:107F7100F030508AEC3FF000D000D0819800D00062
:107F8100D081888380120000EE01F01B0EEE6AE8BA
:107F910006FDE1310EF66E7F0EF76E000EF86E00F3
:107FA100EE1CF010EE11F00900F5CFEEFFE550E107
:107FB10050FAE10001DDEF3FF0400E336ED388D37C
:107FC1008AD38C91EC3FF0A1EC3FF034C02EF03518
:107FD100C02FF0ACEC3FF0344A352A040E345C106B
:107FE1000E3558D8A004D0000E356E000E346E0345
:107FF1000E326E980EE82EFED7322EFCD7E6D7FF52
:020000040020DA
:08000000FFFFFFFFFFFFFFFF00
:020000040030CA
:0E00000000091F1EFF8385FF0FC00FE00F4099
:00000001FF
