:04000000AFEF3EF030
:107D5200831E1200D388D38AD38C1200000EF86ED1
:107D620000011BEF3FF0000E956E000E936E8268CD
:107D720083681200026E0CD001B002D0949401D03C
:107D82009484120001B002D0949201D09482120025
:107D92000250010AD8B4F0D7030AD8A41200F2D7CD
:107DA200000E016E120E026E7A0E036E000E046E4B
:107DB2000FC011F010C012F0D89011361236D890C0
:107DC2001136123611C005F012C006F0076A086AB1
:107DD2009AEC3FF001C013F002C014F01304CB6E12
:107DE200000ECC6E1200056E01C003F002C004F05A
:107DF200D89004320332D890043203320350066E14
:107E020001C003F0030E03160338F00B076E0AD00D
:107E120006C0BEFF0750BD12120006C0BBFF0750CE
:107E2200BA1212000550010AD8B4F2D7030AD8A434
:107E32001200F3D7000E1D6E000E1C6EABEC3EF06E
:107E4200B4EC3EF0010E156E0B0E176EB80E166EE8
:107E5200010E196EB20E186E010E55EC3FF0010EB6
:107E6200156E0B0E176EB80E166E010E196E4E0EB3
:107E7200186E020E55EC3FF0A9EC3EF0EA0E1B6EB6
:107E8200C30EE82EFED71B2EFCD700F00A0E1C24D0
:107E92001C6E000E1D201D6E1CC001F01DC002F0E4
:107EA200020EF4EC3EF0E8D71A6ECA50FC0B010940
:107EB200CA6ECA8436D01550D8B415D00C0EBD6E19
:107EC20016C00FF017C010F0D1EC3EF018C001F050
:107ED20019C002F0010EF4EC3EF0000E016E010E2C
:107EE200BBEC3EF01200000EBD6E12001550D8B46D
:107EF20015D00C0EBA6E16C00FF017C010F0D1ECF0
:107F02003EF018C001F019C002F0020EF4EC3EF08F
:107F1200000E016E020EBBEC3EF01200000EBA6EB5
:107F220012001A50010AD8B4C6D7030AD8A4120004
:107F3200DDD7000E0A6E08AE0AD0081E071E061E06
:107F4200056C000E062207220822010E0A6E04AEFC
:107F52000AD0041E031E021E016C000E022203221E
:107F62000422010E0A1A000E0B6E000E0C6E000E99
:107F72000D6E000E0E6E0550061007100810D8B4D4
:107F82002AD0010E096E06D0D8900536063607367D
:107F92000836092A08AEF8D7D8900B360C360D36BB
:107FA2000E360550015C065002580750035808501F
:107FB2000458D8A009D00550015E0650025A075055
:107FC200035A0850045A0B80D890083207320632FE
:107FD2000532092EE1D70A50D8B408D00E1E0D1E64
:107FE2000C1E0B6C000E0C220D220E220BC001F097
:0E7FF2000CC002F00DC003F00EC004F012002F
:020000040020DA
:08000000FFFFFFFFFFFFFFFF00
:020000040030CA
:0E00000000091F1EFF8385FF0FC00FE00F4099
:00000001FF
