:020000040000FA
:020000000528D1
:040002000034003492
:06000A0083168601880147
:1000100087018312B501B601B701B801A801A30198
:10002000860187018801FF30A4001030A900232039
:100030001B2018281A28A903031D202823200800A4
:1000400007140710080007108714071407108710FB
:1000500008002208A303A207A303031D2B280800FE
:10006000FF30A40024103608A2000830A300292085
:100070002208A6003508A2000830A3002920220883
:10008000A70024088600260874208800270874200A
:1000900087006720A60AA70A0314A40D03184128A5
:1000A000080035308400281000085C208000281CDF
:1000B00008008001840A5328A200A20A22080A3AF2
:1000C000031D652800302814080022080800FF30AE
:1000D000A200FF30A100FF30A000A00B6D28A10BF3
:1000E0006B28A20B6928080082073F343F34333461
:1000F0003334333433343F343F3404340C34043435
:100100000434043404343F343F34063409340934AD
:100110000234043408343F343F343F340134023471
:1001200004340234013401343F34023406340A34D6
:0A0130001F340234023402343F345D
:02400E00F23B83
:02401000FF3F70
:00000001FF
