:020000040000FA
:020000002228B4
:040002000034003492
:06000A0082073F340634BA
:100010005B344F3466346D347D3407347F346F3451
:1000200077347C3439345E34793471340034820767
:100030003F3406345B344F3466346D347D340734DA
:100040007F34673483168601880187018312A801F3
:10005000A901AA01AB01A501A301860187018801BD
:10006000FE30A4003620472032283528273084006F
:10007000FE30A40024088800840A000805208700B8
:100080005D2087010314A40D241A3A2808002830A3
:1000900084002510000852208000251C08008001E3
:1000A000840A4928A200A20A22080A3A031D5B28F2
:1000B000003025140800220808000130A2001C307E
:1000C000A100E630A000A00B6328A10B6128A20BC1
:0400D0005F2808009D
:02400E00F23B83
:02401000FF3F70
:00000001FF
