:04000000BDEF3FF021
:107F7200C3501200C28212000001ECEF3FF0D3881E
:107F8200D38AD38C12009EAC03D09E9C010E1200A9
:107F9200000E1200016E01B002D0C29001D0C28068
:107FA2001200000E946E000E956E000E936E8268A3
:107FB200836812009280C050F80B0109C06EC05055
:107FC200C70B1009C06E000EC16EC294C296C29851
:107FD200C29AC08E1200C0EC3FF0D2EC3FF0DBEC54
:107FE2003FF0010ECBEC3FF0BBEC3FF0C4EC3FF0B6
:0E7FF2000009D8B4FBD7B9EC3FF0816EF5D78B
:020000040020DA
:08000000FFFFFFFFFFFFFFFF00
:020000040030CA
:0E00000000091F1EFF8385FF0FC00FE00F4099
:00000001FF
