:020000040000FA
:020000002228B4
:040002000034003492
:06000A0082073F340634BA
:100010005B344F3466346D347D3407347F346F3451
:1000200077347C3439345E34793471340034820767
:100030003F3406345B344F3466346D347D340734DA
:100040007F34673483168601880187018312A501F6
:10005000A601A4018601870188014D2025082410EE
:100060004220A50017208700241C2D28A501260862
:1000700024104220A60005208800241C2D28A6015B
:100080002D284128A200A20A22080A3A031D4B2863
:10009000003024140800220808000530A200FF30B8
:1000A000A100FF30A000A00B5328A10B5128A20BE8
:0400B0004F280800CD
:02400E00F23B83
:02401000FF3F70
:00000001FF
