:0400000087EF3FF057
:107ECA009EAAFED7AE5012002D6EACA2FED72DC0D0
:047EDA00ADFF1200E6
:107EDF004553435249424120554E204D534D200D9D
:107EEF0000948C948EB886000EB06ECF0EAF6EAC31
:107EFF0098AC84AC9CAC8AAB9CAB88AB8E12000068
:107F0F00EE01F01B0EEE6AE806FDE1DF0EF66E7E67
:107F1F000EF76E000EF86E00EE1CF010EE11F00969
:107F2F0000F5CFEEFFE550E150FAE10001BEEF3F63
:107F3F00F0000E316E3150010DF3502E24D96EF436
:107F4F00502F20DA6EDF5069EC3FF0312A315001AB
:107F5F000DF3502E24D96EF4502F20DA6E0D0EDE55
:107F6F0018D8A4E8D70D0E69EC3FF01200D388D3D0
:107F7F008AD38C250E2E6E800E2D6E78EC3FF01C62
:107F8F000E2E6E000E2F6EA0EC3FF0DDEC3FF02DAD
:107F9F00C001F02EC002F00D0E69EC3FF001C02EB3
:107FAF00F002C02FF0A0EC3FF0EAD7000E306E6564
:107FBF00EC3FF02F6E3050010D030EF324D96E00FD
:107FCF000EF420DA6E2FC0DFFF302A0D0E2F18D8D7
:107FDF00A4EED73050010D030EF324D96E000EF42A
:107FEF0020DA6E0D0EDF6E030E2D6E000E2E6E124A
:027FFF0000FF81
:020000040020DA
:08000000FFFFFFFFFFFFFFFF00
:020000040030CA
:0E00000000091F1EFF8385FF0FC00FE00F4099
:00000001FF
