:020000040000FA
:020000000528D1
:040002000034003492
:02000800452889
:06000A0083168801870146
:100010008312AA01A50187018801831203130F30FF
:10002000A100AA30A00018200F3038208700172820
:10003000831203172030840000088C00840A000813
:100040008D00831603178C130C158B138B1B25281F
:1000500055308D00AA308D008C148B1700000000E5
:10006000000000008C1832280C11831203130800C2
:10007000831203178D00831603178C130C1483123D
:1000800003170C0883120313080009000230A400B0
:100090000230A3001930A200A20B4C28A30B4A285F
:0600A000A40B4828080033
:02400E00F23B83
:02401000FF3F70
:00000001FF
