:020000040000FA
:020000000528D1
:040002000034003492
:020008001B28B3
:06000A00831603178801B4
:1000100089018316031387018801FF308600B03001
:100020008B0007308100831203138701A7013D3045
:100030008100AA301A288B13A000030EA1008B1C8C
:100040000B1D232828288B10A70A2708870034288F
:100050000B110530A5002708A400392024088800CA
:100060003D308100A7013428210E830020088B1722
:1000700009002408A503A407A503031D3B280800C5
:100080000230A4000230A3001930A200A20B4628BF
:0A009000A30B4428A40B422808002B
:02400E00F23B83
:02401000FF3F70
:00000001FF
