:020000040000FA
:020000000528D1
:040002000034003492
:06000A0083168801870146
:100010008312A801A301870188012030A900A4014F
:1000200010308A0024080020870000308A00362023
:100030007C20A40AA41D2128A401A91C1928102889
:10004000FF3087002E2010308A002408002087000F
:1000500000308A007C20662019282D28A903031D62
:100060003328362008000814081008002030A900A2
:100070000810881408140810881008002208A30328
:10008000A207A303031D40280800FF30A40024108A
:100090003608A2000830A3003E202208A60035083A
:1000A000A2000830A3003E202208A70024088600F2
:1000B0002608002088002708002087007C20A60A48
:1000C000A70A0314A40D031856280800353084002D
:1000D0002810000871208000281C08008001840A74
:1000E0006828A200A20A22080A3A031D7A280030D2
:1000F00028140800220808000230A2000230A100E3
:100100001930A000A00B8228A10B8028A20B7E280A
:020110000800E5
:102000008207003400343C343C343C340034003427
:10201000FF34FF34FE34FE340034BE34FE34FF346B
:10202000FF34FF348E3476347A349C34FE34FF34FB
:10203000FF34FF34783416346E347E347D34FF340C
:10204000FF34FF34F7340034B734D734E734F7348F
:10205000FF34FF3471346E346E346E340D34FF341B
:10206000FF34FF34F1346E346E34AE34C134FF3497
:10207000FF34FF341F346F3470347F343F34FF3407
:10208000FF34FF3491346E346E346E349134FF3447
:10209000FF34FF3483346D346E346F349F34FF3437
:0220A000FF340B
:02400E00F23B83
:02401000FF3F70
:00000001FF
