:020000040000FA
:020000002228B4
:040002000034003492
:06000A0082073F340634BA
:100010005B344F3466346D347D3407347F346F3451
:1000200077347C3439345E34793471340034820767
:100030003F3406345B344F3466346D347D340734DA
:100040007F34673483168601880187018312A601F5
:10005000A701A5018601870188014C30A00054202A
:10006000260825104920A60005208700203084009E
:100070000008840A0008251C2F28A601270825103F
:100080004920A70005208800251C2F28A7012F281C
:100090004828A300A30A23080A3A031D5228003067
:1000A00025140800230808000530A300FF30A20033
:1000B000FF30A100A10B5A28A20B5828A30B5628E9
:0200C000080036
:02400E00F23B83
:02401000FF3F70
:00000001FF
