:020000040000FA
:020000000528D1
:040002000034003492
:02000800492885
:06000A00831603178801B4
:1000100089018316031387018801FF308600903021
:100020008B00403081008312031387010A303C208B
:100030008700870A50201928831203172030840074
:1000400000088C00840A00088D00831603178C13A7
:100050000C158B138B1B292855308D00AA308D0071
:100060008C148B1700000000000000008C1836284C
:100070000C11831203130800831203178D008316DB
:1000800003178C130C14831203170C088312031329
:1000900008008B100A30A1000708A0001C200900EE
:1000A0000130A4003230A300FF30A200A20B56287A
:0A00B000A30B5428A40B52280800EB
:02400E00F23B83
:02401000FF3F70
:00000001FF
