:020000040000FA
:020000002D28A9
:040002000034003492
:06000A0082074C3449346A
:100010004E3445344134203455344E344F3420343A
:1000200044344534203450345234553445345634F5
:10003000413482074C34493445344E344134203401
:1000400044344F3453342034443445342034503411
:1000500052345534453456344134FF3089008316C8
:10006000031788018901831603138901870183120D
:100070000313FF3089008701A401A6016A20A400B0
:100080003830A40060200D30A40060200630A400A9
:1000900060200130A4006020A60126080520A400ED
:1000A0006220A60A261E4D28C030A4006020A601AA
:1000B00026081920A4006220A60A261E58285F28B8
:1000C00009106328091424088700891477208910EF
:1000D000772008000230A2000230A1001930A000F1
:1000E000A00B7028A10B6E28A20B6C280800FF3013
:1000F000A700000000000000000000000000000059
:080100000000A70B792808009C
:02400E00F23B83
:02401000FF3F70
:00000001FF
