:020000040000FA
:020000002D28A9
:040002000034003492
:06000A0082074C3449346A
:100010004E3445344134203455344E344F3420343A
:1000200044344534203450345234553445345634F5
:10003000413482074C34493445344E344134203401
:1000400044344F3453342034443445342034503411
:1000500052345534453456344134FF3089008316C8
:10006000031788018901831603138901870183120D
:100070000313FF3089008701A401A60173203330E8
:100080005C2032305C2028305C200C305C20063054
:100090005C2001305C20A601260805205E20A60A0F
:1000A000261E4C28C0305C20A601260819205E20A0
:1000B000A60A261E55285B2809105F280914A500EA
:1000C0000F3087052508F0398704891480208910AE
:1000D00080200F308705250EF03987048914802091
:1000E0008910802008000230A2000230A1001930DF
:1000F000A000A00B7928A10B7728A20B7528080077
:10010000FF30A70000000000000000000000000019
:0A01100000000000A70B8228080081
:02400E00F23B83
:02401000FF3F70
:00000001FF
