:020000040000FA
:020000000528D1
:040002000034003492
:06000A0083168801870146
:100010008312A801A30187018801A401A601A60AF1
:10002000A61F1428A60152203530840043203B200F
:1000300033206820FF3087002A20A40AA41D262828
:10004000840AA4014320A81C26280F283B206820EE
:100050001A282928A903031D2F28A8140800A8106E
:100060000814081008002030A9000810881408148B
:1000700008108810080010308A0027082407002084
:100080008A01870008000830A3000008A2004B2066
:100090002208A70008002208A303A207A303031D48
:1000A0004D28080035308400281000085D208000AD
:1000B000281C08008001840A5428A200A20A2208F1
:1000C0000A3A031D66280030281408002208080098
:1000D0000230A2000230A1001930A000A00B6E284F
:0A00E000A10B6C28A20B6A2808008F
:102000008207FF3400343C343C343C340034FF3429
:10201000FF34FF34FE34FE340034BE34FE34FF346B
:10202000FF34FF348E3476347A349C34FE34FF34FB
:10203000FF34FF34783416346E347E347D34FF340C
:10204000FF34FF34F7340034B734D734E734F7348F
:10205000FF34FF3471346E346E346E340D34FF341B
:10206000FF34FF34F1346E346E34AE34C134FF3497
:10207000FF34FF341F346F3470347F343F34FF3407
:10208000FF34FF3491346E346E346E349134FF3447
:10209000FF34FF3483346D346E346F349F34FF3437
:0220A000FF340B
:02400E00F23B83
:02401000FF3F70
:00000001FF
